:100000000C942A000C9434000C9434000C943400AA
:100010000C9434000C9434000C9434000C94340090
:100020000C9434000C9434000C9434000C94340080
:100030000C9434000C9434000C9434000C94340070
:100040000C9434000C9434000C9434000C94340060
:100050000C94340011241FBECFE5D4E0DEBFCDBF29
:100060000E9424010C9487060C940000DF93CF9328
:1000700000D00F92CDB7DEB78B8384E690E09A83F1
:1000800089830CC089819A8101979A8389838981A8
:100090009A810097B9F78B8181508B838B8188235C
:1000A000B1F70F900F900F90CF91DF910895DF93EC
:1000B000CF930F92CDB7DEB789838BE290E02BE22E
:1000C00030E0F90120812064FC0120838CE290E083
:1000D0002981FC0120838BE290E0FC018081882F44
:1000E00090E0807490700097B1F30F90CF91DF9102
:1000F0000895DF93CF9300D00F92CDB7DEB78B83F7
:100100001A82198288E390E028E330E0F901208127
:100110002F7BFC01208388E390E028E330E0F901A5
:1001200020812F77FC01208380E190E09A838983EE
:1001300073C088E390E028E330E0F90120812F7755
:10014000FC01208389819A818031910549F488E3FB
:1001500090E028E330E0F90120812F7DFC0120832D
:1001600089819A818F30910549F488E390E028E3F2
:1001700030E0F90120812F7DFC01208389819A8163
:100180008E30910549F488E390E028E330E0F901EE
:1001900020812062FC01208389819A818D30910524
:1001A00049F488E390E028E330E0F90120812062FF
:1001B000FC01208389819A818D309105CCF48B815B
:1001C000882354F488E390E028E330E0F9012081AB
:1001D0002062FC01208309C088E390E028E330E03E
:1001E000F90120812F7DFC0120838B81880F8B8377
:1001F0008AE00E94360088E390E028E330E0F901CD
:1002000020812068FC0120838AE00E9436008981D9
:100210009A8101979A83898389819A811816190690
:100220000CF487CF8AE00E94360088E390E028E350
:1002300030E0F90120812064FC0120830F900F90B1
:100240000F90CF91DF910895DF93CF93CDB7DEB7B5
:1002500064970FB6F894DEBF0FBECDBF1C8A8FE740
:100260008B8B8FE78A8B82E7898B188A81E08F8757
:1002700081E08E8781E08D8781E08C871B868FEF00
:100280008A8781E089871F821E821D821C821B82D1
:100290001A82198287E390E027E330E0F901208198
:1002A0002160FC0120838AE390E02FEFFC01208392
:1002B00087E390E027E330E0F90120812260FC0130
:1002C000208387E390E027E330E0F9012081246078
:1002D000FC01208388E390E028E330E0F9012081ED
:1002E0002460FC01208387E390E027E330E0F901FC
:1002F00020812860FC01208388E390E028E330E03F
:10030000F90120812860FC01208387E390E027E346
:1003100030E0F90120812061FC01208388E390E036
:1003200028E330E0F90120812061FC01208381E392
:1003300090E021E330E0F90120812860FC01208376
:1003400082E390E022E330E0F90120812860FC01A3
:10035000208387E390E027E330E0F90120812062E9
:10036000FC01208387E390E027E330E0F90120815E
:100370002064FC01208388E390E028E330E0F90169
:1003800020812064FC01208387E390E027E330E0B4
:10039000F90120812068FC01208382E390E022E3C0
:1003A00030E0F90120812F7BFC01208381E390E084
:1003B00021E330E0F90120812F7BFC01208382E3DF
:1003C00090E022E330E0F90120812F77FC012083C7
:1003D00081E390E021E330E0F90120812F77FC01F7
:1003E000208381E390E021E330E0F9012081206265
:1003F000FC01208381E390E021E330E0F9012081DA
:100400002061FC01208381E390E021E330E0F901E9
:1004100020812B7FFC01208381E390E021E330E009
:10042000F90120812E7FFC01208381E390E021E30C
:1004300030E0F90120812260FC0120838AE290E013
:100440002AE230E0F90120812861FC01208380E468
:1004500090E020E430E0F90120812668FC0120834F
:1004600080E490E0FC01108289E290E02FE1FC0141
:1004700020838FE490E02FE430E0F90120812064B4
:10048000FC0120838EE490E02EE430E0F90120812D
:100490002960FC0120838BE290E0FC0180818823AD
:1004A000D4F78CE290E0FC0180818C8B8C89882FC2
:1004B00090E08736910509F4D0C0883691054CF557
:1004C0008435910509F490C0853591056CF4833429
:1004D000910509F4A2C28335910509F47EC38134E4
:1004E000910509F4E4C1D7CF8136910509F4BAC169
:1004F000823691052CF48A35910509F419C2CBCFC7
:100500008236910509F45DC08336910509F41EC257
:10051000C2CF8237910509F4AFC0833791056CF4DF
:100520008D36910509F4E8C18F36910509F496C01E
:100530008936910509F467C0AECF8437910509F477
:1005400044C0843791050CF4AFC28637910529F079
:100550008A37910509F4DEC19ECF84E40E945700DA
:1005600083E50E9457008FE40E94570080E20E94BA
:10057000570086E50E94570085E60E94570082E7F3
:100580000E94570083E70E94570089E60E945700A7
:100590008FE60E9457008EE60E94570080E20E947C
:1005A000570081E30E9457008EE20E94570080E3CB
:1005B0000E9457008AE00E9457008DE00E94570079
:1005C000A5C389850E945700A1C38BE290E0FC017E
:1005D00080818823D4F78CE290E0FC0180818B8BB2
:1005E0008B890E94790092C38BE290E0FC018081AC
:1005F0008823D4F78CE290E0FC0180818A8B8A8981
:100600000E94790083C38BE290E0FC018081882303
:10061000D4F78CE290E0FC0180818C8B8C8982374E
:1006200011F482E7898B8C89863611F486E6898BF2
:100630008C89823511F482E5898B8C89863411F49A
:1006400086E4898B8C89853611F485E6898B8C89C3
:10065000853411F485E4898B59C358C38BE290E04B
:10066000FC0180818823D4F78CE290E0FC0180813A
:100670008C8B8C89888B4AC38BE290E0FC01808153
:100680008823D4F78CE290E0FC0180818C8B8C89EC
:10069000813359F58AE490E0FC011182108281E3F4
:1006A0008F8782E390E022E330E0F901208120642B
:1006B000FC01208381E390E021E330E0F901208117
:1006C0002064FC01208382E390E022E330E0F90122
:1006D00020812068FC01208381E390E021E330E069
:1006E000F90120812068FC0120838C89823359F52F
:1006F00082E38F878AE490E0FC011182108282E31A
:1007000090E022E330E0F90120812F7BFC0120837F
:1007100081E390E021E330E0F90120812064FC01D5
:10072000208382E390E022E330E0F90120812F77FB
:10073000FC01208381E390E021E330E0F901208196
:100740002068FC0120838C89833359F583E38F87EC
:100750008AE490E0FC011182108282E390E022E3BF
:1007600030E0F90120812F7BFC01208381E390E0C0
:1007700021E330E0F90120812F7BFC01208382E31B
:1007800090E022E330E0F90120812F77FC01208303
:1007900081E390E021E330E0F90120812F77FC0133
:1007A00020838C89843369F582E390E022E330E092
:1007B000F90120812F7BFC01208381E390E021E37C
:1007C00030E0F90120812F7BFC01208382E390E05F
:1007D00022E330E0F90120812F77FC01208381E3BF
:1007E00090E021E330E0F90120812F77FC012083A4
:1007F0008AE490E02AE030E0FC013183208384E346
:100800008F878C89853369F582E390E022E330E0BD
:10081000F90120812F7BFC01208381E390E021E31B
:1008200030E0F90120812F7BFC01208382E390E0FE
:1008300022E330E0F90120812F77FC01208381E35E
:1008400090E021E330E0F90120812F77FC01208343
:100850008AE490E020E137E2FC013183208385E3E4
:100860008F8754C28BE290E0FC0180818823D4F70B
:100870008CE290E0FC0180818C8B8C89813311F4B7
:1008800081E38E878C89823311F482E38E878C8991
:10089000833311F483E38E878C89843311F484E3EA
:1008A0008E878C89853311F485E38E872FC28BE286
:1008B00090E0FC0180818823D4F78CE290E0FC0179
:1008C00080818C8B8C89813311F481E38D878C89B5
:1008D000823311F482E38D878C89833311F483E3AF
:1008E0008D878C89843311F484E38D878C898533DB
:1008F00011F485E38D870AC28BE290E0FC018081D0
:100900008823D4F78CE290E0FC0180818C8B8C8969
:100910008C87FCC18BE290E0FC0180818823D4F7B6
:100920008CE290E0FC0180818C8B8C898B87EEC1FE
:100930008BE290E0FC0180818823D4F78CE290E088
:10094000FC0180818C8B8C898A87E0C184E70E94BE
:1009500057008B890E94570080E20E94570084E56F
:100960000E9457008A890E94570080E20E94570027
:1009700083E70E94570089890E94570080E20E9405
:1009800057008FE60E94570088890E94570080E236
:100990000E94570082E70E9457008F850E945700EF
:1009A00080E20E94570081E60E9457008E850E94D7
:1009B000570080E20E94570081E40E9457008D8515
:1009C0000E94570080E20E9457008DE60E94570067
:1009D0008C850E94570080E20E9457008AE70E949F
:1009E00057008B850E94570080E20E9457008AE5DD
:1009F0000E9457008A850E94570080E20E9457009B
:100A000082E60E94570089850E9457008AE00E9472
:100A100057008DE00E94570079C188E390E028E3F9
:100A200030E0F90120812E7FFC01208388E390E0F3
:100A300028E330E0F90120812260FC01208388E373
:100A400090E028E330E0F90120812D7FFC01208334
:100A50001F8226C08CE290E0FC0180818C8B8F810C
:100A6000882361F480E390E0FC018081882F90E08E
:100A700084709070009711F481E08F8380E390E0A0
:100A8000FC018081882F90E084709070009741F085
:100A90008F81882329F083E40E9457008EE68C8B97
:100AA0008C898E36B9F632C11E821D821C821B8251
:100AB00088E390E028E330E0F90120812160FC0127
:100AC00020837DC08CE290E0FC0180818C8B17C07C
:100AD00082E390E022E330E0F90120812061FC0113
:100AE000208382E390E022E330E0F90120812F7E31
:100AF000FC0120838B819C8101969C838B838B8559
:100B0000282F30E0C901AC01440F551FCA0196954A
:100B1000982F882797958795841B950B820F931F95
:100B20009C018B819C818217930790F289E390E06E
:100B3000FC018081888788850E9457008D819E8175
:100B400001969E838D838C8588871AC082E390E00E
:100B500022E330E0F90120812061FC01208382E35F
:100B600090E022E330E0F90120812F7EFC01208318
:100B70008B819C8101969C838B838885815088879B
:100B80008885882319F78A85282F30E0C901AC01B0
:100B9000440F551FCA019695982F882797958795DA
:100BA000841B950B820F931F9A8389832D813E812D
:100BB00089819A812817390710F08EE68C8B8C89F1
:100BC0008E3609F07FCF88E390E028E330E0F9012A
:100BD00020812E7FFC01208399C01E821D821C82F1
:100BE0001B8288E390E028E330E0F9012081216056
:100BF000FC0120837DC08CE290E0FC0180818C8B25
:100C000017C082E390E022E330E0F9012081206107
:100C1000FC01208382E390E022E330E0F9012081AF
:100C20002F7EFC0120838B819C8101969C838B838A
:100C30008B85282F30E0C901AC01440F551FCA0134
:100C40009695982F882797958795841B950B820FEB
:100C5000931F9C018B819C818217930790F289E3FB
:100C600090E0FC018081888788850E9457008D81F3
:100C70009E8101969E838D838C8588871AC082E32E
:100C800090E022E330E0F90120812061FC01208323
:100C900082E390E022E330E0F90120812F7EFC0125
:100CA00020838B819C8101969C838B8388858150D6
:100CB00088878885882319F78A85282F30E0C9011D
:100CC000AC01440F551FCA019695982F8827979518
:100CD0008795841B950B820F931F9A8389832D819F
:100CE0003E8189819A812817390710F08EE68C8B16
:100CF0008C898E3609F07FCF88E390E028E330E0DE
:100D0000F90120812E7FFC012083C5CBC4CBF89450
:020D1000FFCF13
:00000001FF
